{
  "contractName": "Auth",
  "abi": [
    {
      "inputs": [
        {
          "internalType": "string",
          "name": "userHash",
          "type": "string"
        },
        {
          "internalType": "string",
          "name": "mediaHash",
          "type": "string"
        }
      ],
      "name": "storeHash",
      "outputs": [],
      "stateMutability": "nonpayable",
      "type": "function"
    },
    {
      "inputs": [
        {
          "internalType": "string",
          "name": "userHash",
          "type": "string"
        }
      ],
      "name": "getHash",
      "outputs": [
        {
          "internalType": "string",
          "name": "",
          "type": "string"
        }
      ],
      "stateMutability": "view",
      "type": "function",
      "constant": true
    }
  ],
  "bytecode": "0x608060405234801561001057600080fd5b506107c8806100206000396000f3fe608060405234801561001057600080fd5b50600436106100365760003560e01c80635b6beeb91461003b5780636f28ee091461006b575b600080fd5b610055600480360381019061005091906102f5565b610087565b60405161006291906103bd565b60405180910390f35b610085600480360381019061008091906103df565b610151565b005b60606000808360405160200161009d9190610493565b60405160208183030381529060405280519060200120815260200190815260200160002080546100cc906104d9565b80601f01602080910402602001604051908101604052809291908181526020018280546100f8906104d9565b80156101455780601f1061011a57610100808354040283529160200191610145565b820191906000526020600020905b81548152906001019060200180831161012857829003601f168201915b50505050509050919050565b80600080846040516020016101669190610493565b604051602081830303815290604052805190602001208152602001908152602001600020908161019691906106c0565b505050565b6000604051905090565b600080fd5b600080fd5b600080fd5b600080fd5b6000601f19601f8301169050919050565b7f4e487b7100000000000000000000000000000000000000000000000000000000600052604160045260246000fd5b610202826101b9565b810181811067ffffffffffffffff82111715610221576102206101ca565b5b80604052505050565b600061023461019b565b905061024082826101f9565b919050565b600067ffffffffffffffff8211156102605761025f6101ca565b5b610269826101b9565b9050602081019050919050565b82818337600083830152505050565b600061029861029384610245565b61022a565b9050828152602081018484840111156102b4576102b36101b4565b5b6102bf848285610276565b509392505050565b600082601f8301126102dc576102db6101af565b5b81356102ec848260208601610285565b91505092915050565b60006020828403121561030b5761030a6101a5565b5b600082013567ffffffffffffffff811115610329576103286101aa565b5b610335848285016102c7565b91505092915050565b600081519050919050565b600082825260208201905092915050565b60005b8381101561037857808201518184015260208101905061035d565b60008484015250505050565b600061038f8261033e565b6103998185610349565b93506103a981856020860161035a565b6103b2816101b9565b840191505092915050565b600060208201905081810360008301526103d78184610384565b905092915050565b600080604083850312156103f6576103f56101a5565b5b600083013567ffffffffffffffff811115610414576104136101aa565b5b610420858286016102c7565b925050602083013567ffffffffffffffff811115610441576104406101aa565b5b61044d858286016102c7565b9150509250929050565b600081905092915050565b600061046d8261033e565b6104778185610457565b935061048781856020860161035a565b80840191505092915050565b600061049f8284610462565b915081905092915050565b7f4e487b7100000000000000000000000000000000000000000000000000000000600052602260045260246000fd5b600060028204905060018216806104f157607f821691505b602082108103610504576105036104aa565b5b50919050565b60008190508160005260206000209050919050565b60006020601f8301049050919050565b600082821b905092915050565b60006008830261056c7fffffffffffffffffffffffffffffffffffffffffffffffffffffffffffffffff8261052f565b610576868361052f565b95508019841693508086168417925050509392505050565b6000819050919050565b6000819050919050565b60006105bd6105b86105b38461058e565b610598565b61058e565b9050919050565b6000819050919050565b6105d7836105a2565b6105eb6105e3826105c4565b84845461053c565b825550505050565b600090565b6106006105f3565b61060b8184846105ce565b505050565b5b8181101561062f576106246000826105f8565b600181019050610611565b5050565b601f821115610674576106458161050a565b61064e8461051f565b8101602085101561065d578190505b6106716106698561051f565b830182610610565b50505b505050565b600082821c905092915050565b600061069760001984600802610679565b1980831691505092915050565b60006106b08383610686565b9150826002028217905092915050565b6106c98261033e565b67ffffffffffffffff8111156106e2576106e16101ca565b5b6106ec82546104d9565b6106f7828285610633565b600060209050601f83116001811461072a5760008415610718578287015190505b61072285826106a4565b86555061078a565b601f1984166107388661050a565b60005b828110156107605784890151825560018201915060208501945060208101905061073b565b8683101561077d5784890151610779601f891682610686565b8355505b6001600288020188555050505b50505050505056fea2646970667358221220d58a9025c1be8c7c42a32d76ebd12c064c64205a8cda5d90ef0f01efcd643e1b64736f6c63430008130033",
  "immutableReferences": {},
  "source": "// SPDX-License-Identifier: MIT\r\npragma solidity ^0.8.19;\r\n\r\ncontract Auth {\r\n    mapping(bytes32 => string) private hashes;\r\n\r\n    function storeHash(string memory userHash, string memory mediaHash) public {\r\n        hashes[keccak256(abi.encodePacked(userHash))] = mediaHash;\r\n    }\r\n\r\n    function getHash(string memory userHash) public view returns (string memory) {\r\n        return hashes[keccak256(abi.encodePacked(userHash))];\r\n    }\r\n}\r\n",
  "sourcePath": "E:\\Blockchain\\blockchain-2fa-adaptive-auth\\blockchain_2fa_full_project\\blockchain\\contracts\\Auth.sol",
  "compiler": {
    "name": "solc",
    "version": "0.8.19+commit.7dd6d404.Emscripten.clang"
  },
  "schemaVersion": "3.4.16",
  "updatedAt": "2025-04-18T05:03:08.802Z",
  "networkType": "ethereum",
  "devdoc": {
    "kind": "dev",
    "methods": {},
    "version": 1
  },
  "userdoc": {
    "kind": "user",
    "methods": {},
    "version": 1
  }
}